:020000040800F2
:10000000C0040020050100080D060008AD0300082B
:10001000B10300084D010008ED10000800000000C9
:10002000000000000000000000000000C10A0008FD
:10003000350200080000000049090008510C0008C2
:100040001F0100081F0100081F0100081F01000810
:100050001F0100081F0100081F0100081F01000800
:100060001F0100081F0100081F0100081F010008F0
:100070001F0100081F0100081F0100081F010008E0
:100080001F0100081F0100081F0100081F010008D0
:100090001F0100081F0100081F0100081F010008C0
:1000A0001F010008B50C00081F0100081F0100080F
:1000B0001F0100081F0100081F0100081F010008A0
:1000C0001F0100081F0100081F0100081F01000890
:1000D0001F0100081F0100081F0100081F01000880
:1000E0001F0100081F0100081F010008DFF810D0E1
:1000F00000F01AF80048004711110008AFF3008023
:10010000C00400200648804706480047FEE7FEE797
:10011000FEE7FEE7FEE7FEE7FEE7FEE7FEE7FEE7B7
:10012000550C0008ED000008064C074D06E0E0689D
:1001300040F0010394E8070098471034AC42F6D32E
:10014000FFF7D8FFE41300080414000800BFFEE71F
:1001500010B504462146002000F02CF9214600206D
:1001600000F048F92146002000F064F92146002003
:1001700000F07EF910BD10B504462146012000F0C4
:1001800019F92146012000F035F92146012000F03F
:1001900051F92146012000F06BF910BD10B504465D
:1001A0002146012000F006F92146002000F022F946
:1001B0002146012000F03EF92146002000F058F9C8
:1001C00010BD10B504462146002000F0F3F821468A
:1001D000012000F00FF92146002000F02BF9214604
:1001E000012000F045F910BD10B50446214600205D
:1001F00000F0E0F82146012000F0FCF82146012043
:1002000000F018F92146002000F032F910BD10B5B9
:1002100004462146012000F0CDF82146002000F0E0
:10022000E9F82146002000F005F92146012000F000
:100230001FF910BD704700B5034603E04FF47A7014
:1002400000F005F8181EA3F10103F7D100BD00EB83
:10025000C001C9004FF0E0225161002191610521E8
:10026000116100BF4FF0E021096901F480310029DC
:10027000F8D004214FF0E022116170472DE9F041E0
:10028000024600250026002000230024002791F8C4
:1002900003C00CF00F0591F803C00CF0100CBCF17A
:1002A000000F03D091F802C04CEA050591F800C098
:1002B000BCF1000F31D0146800202BE04FF0010C8E
:1002C0000CFA00F3B1F800C00CEA03069E4220D1FC
:1002D00083004FF00F0C0CFA03F7BC4305FA03FC44
:1002E0004CEA040491F803C0BCF1280F06D14FF08A
:1002F000010C0CFA00FCC2F814C00AE091F803C02B
:10030000BCF1480F05D14FF0010C0CFA00FCC2F80B
:1003100010C0401C0828D1D31460B1F800C0BCF153
:10032000FF0F34DD546800202EE000F1080C4FF080
:10033000010808FA0CF3B1F800C00CEA03069E426B
:1003400021D183004FF00F0C0CFA03F7BC4305FAE0
:1003500003FC4CEA040491F803C0BCF1280F05D15A
:1003600000F1080C08FA0CF8C2F8148091F803C0E8
:10037000BCF1480F07D100F1080C4FF0010808FA52
:100380000CF8C2F81080401C0828CED35460BDE899
:10039000F0810246002093680B400BB1012000E081
:1003A00000207047416170470161704700BFFEE760
:1003B00000BFFEE770B504460D46B5F57A7F01DB58
:1003C0004FF47A7554B100214FF0804000F034FEB4
:1003D00029464FF0804000F02DFE0AE04CB9002184
:1003E0004FF0804000F026FE29464FF0804000F09C
:1003F00023FE70BD70B504460D46B5F57A7F01DB6E
:100400004FF47A7554B100214FF0804000F016FE91
:1004100029464FF0804000F013FE0AE04CB900215D
:100420004FF0804000F00CFE29464FF0804000F075
:1004300005FE70BD70B504460D46B5F57A7F01DB4B
:100440004FF47A7544B10021084800F0F3FD2946C5
:10045000064800F0F1FD08E03CB90021034800F037
:10046000EBFD2946014800F0E5FD70BD00080040A5
:1004700070B504460D46B5F57A7F01DB4FF47A7509
:1004800044B10021084800F0DBFD2946064800F091
:10049000D5FD08E03CB90021034800F0CFFD294616
:1004A000014800F0CDFD70BD0008004000B589B0E6
:1004B0000121084600F04AFA0121042000F056FA12
:1004C00018208DF823000F20ADF8200003208DF8B0
:1004D000220008A94A48FFF7D1FE4FF0804000F003
:1004E0006DFC0020ADF81A00ADF8160040F2E730C0
:1004F000ADF8180040F2CF20ADF8140000208DF8C0
:100500001C0005A94FF0804000F09EFD01A800F0FE
:1005100087FD6020ADF804000020ADF80C0001203C
:10052000ADF806000020ADF80A0001A94FF08040A8
:1005300000F04AFC01A94FF0804000F091FC01A9B5
:100540004FF0804000F0DEFC01A94FF0804000F049
:1005500029FD0121880700F00BFC0121042000F097
:10056000F5F90121082000F001FA18208DF8230088
:100570004FF47070ADF8200003208DF8220008A918
:100580002048FFF77BFE204800F018FC0020ADF863
:100590001A00ADF8160040F2E730ADF8180040F24E
:1005A000CF20ADF8140000208DF81C0005A91648D6
:1005B00000F04AFD01A800F033FD6020ADF8040012
:1005C0000020ADF80C000120ADF806000020ADF8C9
:1005D0000A0001A90C4800F0F7FB01A90A4800F045
:1005E0003FFC01A9084800F08DFC01A9064800F075
:1005F000D9FC0121044800F0BBFB09B000BD00009C
:1006000000080140000C0140000800407047000055
:1006100070B5002100230F22C47804B3154C246860
:1006200004F4E064C4F5E064210AC1F10403CA40A3
:10063000447804FA03F184781440214309010E4CF4
:100640000678A155047804F01F050124AC40057814
:100650006D11AD0005F1E025C5F8004109E0047811
:1006600004F01F050124AC40044D0678761145F8CE
:10067000264070BD0CED00E000E400E080E100E009
:1006800002490143024A1160704700000000FA0568
:100690000CED00E010B510210148FFF785FE10BDFC
:1006A0000008014010B510210148FFF77BFE10BD86
:1006B000000801402DE9F0410446012500260027ED
:1006C0001EE004F0010010B100F02AF801E000F093
:1006D0002FF86410642000F033F800F0EBF8642089
:1006E00000F02EF800F012F808B17019C6B26806D2
:1006F000050E00F0D7F8012000F022F8781CC7B2F0
:10070000072FDEDD3046BDE8F081000010B5402146
:100710000248FFF73EFE0446204610BD0008014097
:1007200010B580210148FFF73FFE10BD00080140D1
:1007300010B580210148FFF735FE10BD00080140CB
:1007400000E0401E0028FCD1704710B5FFF7AAFF5B
:100750006420FFF7F5FF0120FFF7ACFF4320FFF710
:10076000A9FF0020FFF7A6FF0120FFF7A3FF00204D
:10077000FFF7A0FF0020FFF79DFF0020FFF79AFF83
:100780000020FFF797FF0020FFF794FFFFF782FF9D
:100790006420FFF7D5FF10BD10B5FFF783FF64207D
:1007A000FFF7CEFF0120FFF785FF4320FFF782FF11
:1007B0000020FFF77FFF0020FFF77CFF5A20FFF7A4
:1007C00079FF5A20FFF776FF5A20FFF773FF5A2070
:1007D000FFF770FF5A20FFF76DFFFFF75BFF642004
:1007E000FFF7AEFF10BD000008B50121042000F0A6
:1007F000BDF8B020ADF8000010208DF803000320F4
:100800008DF8020069460848FFF738FD4020ADF832
:10081000000048208DF8030003208DF8020069468F
:100820000148FFF72BFD08BD0008014010B5FFF798
:10083000DBFF00F037F8FFF72DFF00F043F800F082
:1008400041F800F03FF8FFF780FF00F056F8FFF79F
:10085000A3FF00F0ADFD10BD10B50024FFF722FF8F
:100860000A20FFF76DFF00BF0FE0022C06DA0B49EC
:10087000085DFFF71FFF0A49085504E00020FFF755
:1008800019FF07490855601CC4B2092CEDDBFFF7BE
:1008900001FF0A20FFF754FF10BD000015000020E3
:1008A000A400002010B520210148FFF77DFD10BDF8
:1008B0000008014010B520210148FFF773FD10BD6D
:1008C0000008014010B5FFF7EDFE6420FFF738FF88
:1008D0000120FFF7EFFE4220FFF7ECFE0020FFF7BC
:1008E000E9FE0020FFF7E6FE0020FFF7E3FEFFF73A
:1008F000D1FE6420FFF724FF10BD10B5FFF7D2FE34
:100900006420FFF71DFF0120FFF7D4FE4420FFF70E
:10091000D1FE0020FFF7CEFE0120FFF7CBFEEE2038
:10092000FFF7C8FE0020FFF7C5FE0020FFF7C2FE5C
:100930000020FFF7BFFE0020FFF7BCFEFFF7AAFE76
:100940006420FFF7FDFE10BD7047000029B1064A84
:10095000D2690243044BDA6104E0034AD26982435C
:10096000014BDA61704700000010024029B1064ACD
:1009700092690243044B9A6104E0034A92698243FC
:10098000014B9A61704700000010024000B5034619
:1009900003480078C01AC3B2184600F05BF800BDE7
:1009A0000000002000B5034603480078C01AC3B217
:1009B000184600F073F800BD0400002000B503469F
:1009C000034800781844C3B2184600F043F800BD4D
:1009D0000000002000B50346034800781844C3B265
:1009E000184600F05BF800BD0400002000B5034687
:1009F00003480078C01AC3B2184600F03DF800BDA5
:100A00000800002000B50346034800781844C3B22C
:100A1000184600F031F800BD0800002008B501219B
:100A20000820FFF7A3FF10208DF803004FF460406B
:100A3000ADF8000003208DF8020069460448FFF776
:100A40001DFC4FF460410248FFF7AEFC08BD0000FA
:100A5000000C014007494978814202DD0549487888
:100A600005E00449C978814201DA0249C878014A9F
:100A7000107070470000002007494978814202DD6C
:100A80000549487805E00449C978814201DA0249FC
:100A9000C878014A1070704708000020074949785B
:100AA000814202DD0549487805E00449C978814260
:100AB00001DA0249C878014A10707047040000202A
:100AC0007047000010B5FFF7A9FF00F013F80649C2
:100AD0008878FFF7BFFF05498878FFF7CDFF044905
:100AE0008878FFF7DBFF10BD000000200800002021
:100AF000040000201FB50121C802FFF737FF194885
:100B000000F05CF90020ADF80A00ADF806000920FD
:100B1000ADF808004720ADF8040000208DF80C0067
:100B200001A9104800F090FA01210E4800F01AF9CE
:100B3000012211460B4800F038F919208DF8000009
:100B400001208DF8030002208DF8010001208DF8AE
:100B500002006846FFF75CFD0121024800F008F939
:100B60001FBD0000002C014010B500F001F810BDC1
:100B70000CB50020019000903348006840F48030AC
:100B80003149086000BF3048006800F40030009030
:100B90000198401C0190009818B90198B0F5A06F19
:100BA000F1D12948006800F4003010B10120009014
:100BB00001E0002000900098012843D123480068FC
:100BC00040F01000214908600846006820F003004A
:100BD00008600846006840F0020008601A48406853
:100BE000194948600846406848600846406840F433
:100BF000806048600846406820F47C1048600846E1
:100C0000406840F4E81048600846006840F0807092
:100C1000086000BF0C48006800F000700028F9D0A0
:100C20000948406820F003000749486008464068CA
:100C300040F00200486000BF0348406800F00C002C
:100C40000828F9D10CBD000000100240002002402D
:100C50007047000010B51348006840F001001149CA
:100C6000086008464068104908400E494860084638
:100C700000680E4908400B4908600846006820F4E7
:100C8000802008600846406820F4FE0048604FF469
:100C90001F008860FFF768FF4FF00060044908609C
:100CA00010BD0000001002400000FFF8FFFFF6FE3C
:100CB00008ED00E010B50121244800F065F8002897
:100CC00042D00121214800F050F821480088401C02
:100CD0001F49088008460088B0F5FA6F01DD002042
:100CE00008801C4800781A490988884205DD4FF4BD
:100CF00000511948FFF758FB04E04FF40051164823
:100D0000FFF750FB1548007811490988884205DD36
:100D10004FF480411048FFF747FB04E04FF4804157
:100D20000D48FFF73FFB0E480078094909888842C3
:100D300005DD4FF400410848FFF736FB04E04FF4AF
:100D400000410548FFF72EFB10BD0000002C0140BC
:100D50000C00002000000020000C014004000020D6
:100D600008000020CA4302827047CA4302827047CB
:100D700021B1028842F00102028004E002884FF6AD
:100D8000FE731A400280704730B5024600200023EF
:100D90000024158A05EA0103958905EA010413B1C7
:100DA0000CB1012000E0002030BD1AB183890B4353
:100DB000838102E083898B438381704701894FF6E9
:100DC000F87211400181704770B5002400220023A1
:100DD000058C4FF6FE7635400584028C8388048BA3
:100DE0004FF68F752C40B51E2C400D882C43751E78
:100DF0002A400D892A434D882A43144DA8420BD01E
:100E0000134DA84208D0134DA84205D0124DA84258
:100E100002D0124DA84213D14FF6F7752A404D89E2
:100E20002A434FF6FB752A408D882A434FF6FF650B
:100E30002B404FF6FF552B408D892B43CD892B43FB
:100E400083800483CD888586028470BD002C014098
:100E5000003401400040014000440140004801408E
:100E600070B5002400220023058C4FF6EF76354044
:100E70000584028C8388048B48F6FF752C404FF65E
:100E8000FF452C400D884FF6FF7606EA05252C43DA
:100E90004FF6DF752A400D8906EA05152A434D886D
:100EA00006EA05152A43154DA84202D0144DA84262
:100EB0001DD14FF67F752A404D894FF6FF7606EA21
:100EC00005152A434FF6BF752A408D8806EA051599
:100ED0002A434FF6FF352B404FF2FF752B408D898B
:100EE00006EA85052B43CD8906EA85052B438380D9
:100EF0000483CD880587028470BD0000002C01406A
:100F00000034014070B5002400220023058C4FF608
:100F1000FF6635400584028C8388848B4FF68F757D
:100F20002C404FF6FC752C400D882C434FF6FF5596
:100F30002A400D894FF6FF7606EA05252A434D889B
:100F400006EA05252A43154DA84202D0144DA842B1
:100F50001DD14FF2FF752A404D894FF6FF7606EA04
:100F600005252A434FF6FF352A408D8806EA0525D8
:100F70002A434EF6FF752B404DF6FF752B408D89A9
:100F800006EA05152B43CD8906EA05152B43838018
:100F90008483CD888587028470BD0000002C0140C9
:100FA0000034014070B5002200230024058C4EF669
:100FB000FF7635400584038C8488828B48F6FF7564
:100FC0002A404FF6FF452A400D884FF6FF7606EA85
:100FD00005252A434DF6FF752B400D8906EA053598
:100FE0002B434D8806EA05352B430B4DA84202D012
:100FF0000A4DA84208D14BF6FF752C408D894FF65B
:10100000FF7606EA85152C4384808283CD88A0F87C
:101010004050038470BD0000002C014000340140AA
:101020000021018041808180C180018141818181D5
:10103000C1817047818670470187704781877047FB
:10104000A0F8401070470000002202881D4B984213
:101050000ED01D4B98420BD0B0F1804F08D01B4BE7
:10106000984205D01A4B984202D01A4B984204D1AC
:101070004FF68F731A404B881A43174B984207D08C
:10108000164B984204D04FF6FF431A40CB881A43C0
:1010900002808B8883850B8803850A4B98420BD08E
:1010A000094B984208D00E4B984205D00D4B984200
:1010B00002D00D4B984201D10B7A03860123838223
:1010C00070470000002C0140003401400004004043
:1010D00000080040000C00400010004000140040D8
:1010E00000400140004401400048014000BFFEE7CD
:1010F00002E008C8121F08C1002AFAD170477047E1
:10110000002001E001C1121F002AFBD1704700003E
:101110004FF4A060FFF7B4FAFFF788FBFFF7C6F9BA
:10112000FFF7D0FCF7E000F011F97B49087000F000
:101130003FF97A4908700846007879490978884269
:1011400002D00020FFF717F874480078012862D118
:10115000072000F0E7F80646082000F0E3F807460D
:1011600027B94FF47A70FFF706F828E0FF2F04D173
:101170004FF47A70FEF7ECFF21E026B94FF47A7055
:10118000FFF70CF81BE0FF2E04D14FF47A70FFF745
:1011900018F814E00B2000F0CBF820B14FF47A706F
:1011A000FFF722F80BE0092000F0C2F820B14FF45D
:1011B0007A70FFF72CF802E00020FEF7DCFF052034
:1011C00000F0B0F80446FF2C03D10320FFF7F6FB34
:1011D00003E014B90320FFF7D9FB062000F0A2F8C2
:1011E00005461DB90320FFF70DFC04E0FF2D02D1D9
:1011F0000320FFF7FBFB0C2000F09AF818B1032046
:10120000FFF7E8FB06E00A2000F092F810B1032097
:10121000FFF7C8FB78E041480078022871D13E48CA
:101220000078002868D0052000F082F820B14FF443
:101230007A70FEF7A0FF2FE0072000F079F820B1C8
:101240004FF47A70FEF784FF26E0082000F070F873
:1012500020B14FF47A70FEF7A1FF1DE0062000F0E8
:1012600067F820B14FF47A70FEF7ABFF14E00B2063
:1012700000F05EF820B14FF47A70FEF7B5FF0BE096
:10128000092000F055F820B14FF47A70FEF7BFFF47
:1012900002E00020FEF76FFF0E2000F049F818B1C1
:1012A0000320FFF78BFB2FE0102000F041F818B16E
:1012B0000320FFF76BFB27E00D2000F039F818B191
:1012C0000320FFF79FFB1FE00F2000F031F818B15B
:1012D0000320FFF78BFB17E00C2000F029F818B172
:1012E0000320FFF777FB0FE00A2000F021F858B148
:1012F0000320FFF757FB07E00020FEF73CFF03E069
:10130000FFE70020FEF737FF044800780449087023
:101310001420FEF790FF06E7A0000020A1000020A7
:10132000A200002001460148405C7047A400002054
:101330000146012901DA00207047481E024A02EBEB
:10134000C0000079F8E700002000002070B50025FB
:10135000FFF782FA1348C0781249097940EA012060
:1013600011490860042419E0104810F83400401EA8
:10137000012101FA00F00C490968084038B9012040
:101380000A4901EBC4014860681CC5B204E00020B2
:10139000064901EBC4014860601CC4B2102CE3DBB9
:1013A000284670BDA400002010000020200000206E
:1013B0000A484078732803D10120094908700AE0DF
:1013C00006484078412803D102200549087002E010
:1013D000002003490870024800787047A4000020EC
:1013E000140000200414000800000020A4000000E5
:1013F000F0100008A8140008A40000201C0400003D
:1014000000110008C882C8FA966496FAB478B4FA53
:101410000000000000000000000142000000000089
:1014200000000000010000000000000002000000B9
:1014300000000000030000000000000004000000A5
:101440000000000005000000000000000600000091
:10145000000000000700000000000000080000007D
:101460000000000009000000000000000A00000069
:10147000000000000B000000000000000C00000055
:10148000000000000D000000000000000E00000041
:10149000000000000F00000000000000100000002D
:0814A000000000000000000044
:04000005080000ED02
:00000001FF
